{
  "contractName": "MetaCoin",
  "abi": [
    {
      "constant": true,
      "inputs": [
        {
          "name": "addr",
          "type": "address"
        },
        {
          "name": "num",
          "type": "uint256"
        }
      ],
      "name": "returns2",
      "outputs": [
        {
          "name": "",
          "type": "uint256"
        },
        {
          "name": "",
          "type": "bool"
        }
      ],
      "payable": false,
      "type": "function",
      "stateMutability": "view"
    },
    {
      "constant": true,
      "inputs": [],
      "name": "source",
      "outputs": [
        {
          "name": "",
          "type": "string"
        }
      ],
      "payable": false,
      "type": "function",
      "stateMutability": "view"
    },
    {
      "constant": true,
      "inputs": [
        {
          "name": "addr",
          "type": "address"
        }
      ],
      "name": "getBalanceInEth",
      "outputs": [
        {
          "name": "",
          "type": "uint256"
        }
      ],
      "payable": false,
      "type": "function",
      "stateMutability": "view"
    },
    {
      "constant": true,
      "inputs": [],
      "name": "other",
      "outputs": [
        {
          "name": "",
          "type": "string"
        },
        {
          "name": "",
          "type": "bytes32"
        },
        {
          "name": "",
          "type": "uint256"
        }
      ],
      "payable": false,
      "type": "function",
      "stateMutability": "pure"
    },
    {
      "constant": false,
      "inputs": [
        {
          "name": "receiver",
          "type": "address"
        },
        {
          "name": "amount",
          "type": "uint256"
        }
      ],
      "name": "sendCoin",
      "outputs": [
        {
          "name": "sufficient",
          "type": "bool"
        }
      ],
      "payable": false,
      "type": "function",
      "stateMutability": "nonpayable"
    },
    {
      "constant": true,
      "inputs": [
        {
          "name": "baz",
          "type": "int256"
        }
      ],
      "name": "bar",
      "outputs": [
        {
          "name": "",
          "type": "int256"
        }
      ],
      "payable": false,
      "type": "function",
      "stateMutability": "pure"
    },
    {
      "constant": true,
      "inputs": [
        {
          "name": "addr",
          "type": "address"
        }
      ],
      "name": "candy",
      "outputs": [
        {
          "name": "",
          "type": "uint256"
        }
      ],
      "payable": false,
      "type": "function",
      "stateMutability": "view"
    },
    {
      "inputs": [
        {
          "name": "addr",
          "type": "address"
        }
      ],
      "payable": false,
      "type": "function",
      "stateMutability": "view",
      "constant": true,
      "name": "getBalance",
      "outputs": [
        {
          "name": "",
          "type": "uint256"
        }
      ]
    },
    {
      "anonymous": false,
      "inputs": [
        {
          "indexed": true,
          "name": "_from",
          "type": "address"
        },
        {
          "indexed": true,
          "name": "_to",
          "type": "address"
        },
        {
          "indexed": false,
          "name": "_value",
          "type": "uint256"
        }
      ],
      "name": "Transfer",
      "type": "constructor",
      "payable": false,
      "stateMutability": "nonpayable"
    },
    {
      "anonymous": false,
      "inputs": [
        {
          "indexed": true,
          "name": "_from",
          "type": "address"
        },
        {
          "indexed": true,
          "name": "_to",
          "type": "address"
        },
        {
          "indexed": false,
          "name": "_value",
          "type": "uint256"
        }
      ],
      "name": "Transfer",
      "type": "event"
    }
  ],
  "bytecode": "0x6060604052341561000f57600080fd5b6127106000803273ffffffffffffffffffffffffffffffffffffffff1673ffffffffffffffffffffffffffffffffffffffff1681526020019081526020016000208190555060066001819055506040805190810160405280600681526020017f736f757263650000000000000000000000000000000000000000000000000000815250600290805190602001906100a79291906100ad565b50610152565b828054600181600116156101000203166002900490600052602060002090601f016020900481019282601f106100ee57805160ff191683800117855561011c565b8280016001018555821561011c579182015b8281111561011b578251825591602001919060010190610100565b5b509050610129919061012d565b5090565b61014f91905b8082111561014b576000816000905550600101610133565b5090565b90565b6106d5806101616000396000f30060606040526004361061008e576000357c0100000000000000000000000000000000000000000000000000000000900463ffffffff168063258082951461009357806367e828bf146100eb5780637bd703e81461017957806385295877146101c657806390b98a111461026a578063ea934ce4146102c4578063f616ce3c146102fb578063f8b2cb4f14610324575b600080fd5b341561009e57600080fd5b6100ca600480803573ffffffffffffffffffffffffffffffffffffffff16906020019091905050610371565b60405180838152602001821515151581526020019250505060405180910390f35b34156100f657600080fd5b6100fe6103be565b6040518080602001828103825283818151815260200191508051906020019080838360005b8381101561013e578082015181840152602081019050610123565b50505050905090810190601f16801561016b5780820380516001836020036101000a031916815260200191505b509250505060405180910390f35b341561018457600080fd5b6101b0600480803573ffffffffffffffffffffffffffffffffffffffff1690602001909190505061045c565b6040518082815260200191505060405180910390f35b34156101d157600080fd5b6101d9610478565b60405180806020018460001916600019168152602001838152602001828103825285818151815260200191508051906020019080838360005b8381101561022d578082015181840152602081019050610212565b50505050905090810190601f16801561025a5780820380516001836020036101000a031916815260200191505b5094505050505060405180910390f35b341561027557600080fd5b6102aa600480803573ffffffffffffffffffffffffffffffffffffffff169060200190919080359060200190919050506104d4565b604051808215151515815260200191505060405180910390f35b34156102cf57600080fd5b6102e5600480803590602001909190505061062d565b6040518082815260200191505060405180910390f35b341561030657600080fd5b61030e61063a565b6040518082815260200191505060405180910390f35b341561032f57600080fd5b61035b600480803573ffffffffffffffffffffffffffffffffffffffff16906020019091905050610640565b6040518082815260200191505060405180910390f35b6000806000808473ffffffffffffffffffffffffffffffffffffffff1673ffffffffffffffffffffffffffffffffffffffff16815260200190815260200160002054600191509150915091565b60028054600181600116156101000203166002900480601f0160208091040260200160405190810160405280929190818152602001828054600181600116156101000203166002900480156104545780601f1061042957610100808354040283529160200191610454565b820191906000526020600020905b81548152906001019060200180831161043757829003601f168201915b505050505081565b600061047161046a83610640565b6002610688565b9050919050565b610480610695565b60008060116102586040805190810160405280600381526020017f68657900000000000000000000000000000000000000000000000000000000008152509190816001029150809050925092509250909192565b6000816000803373ffffffffffffffffffffffffffffffffffffffff1673ffffffffffffffffffffffffffffffffffffffff1681526020019081526020016000205410156105255760009050610627565b816000803373ffffffffffffffffffffffffffffffffffffffff1673ffffffffffffffffffffffffffffffffffffffff16815260200190815260200160002060008282540392505081905550816000808573ffffffffffffffffffffffffffffffffffffffff1673ffffffffffffffffffffffffffffffffffffffff168152602001908152602001600020600082825401925050819055508273ffffffffffffffffffffffffffffffffffffffff163373ffffffffffffffffffffffffffffffffffffffff167fddf252ad1be2c89b69c2b068fc378daa952ba7f163c4a11628f55a4df523b3ef846040518082815260200191505060405180910390a3600190505b92915050565b6000600382029050919050565b60015481565b60008060008373ffffffffffffffffffffffffffffffffffffffff1673ffffffffffffffffffffffffffffffffffffffff168152602001908152602001600020549050919050565b6000818302905092915050565b6020604051908101604052806000815250905600a165627a7a72305820b55a2dd2cc37b9bc4ffb1ccbd0b5e68976256be5070b94f30b1e30fb08811dc70029",
  "source": "pragma solidity ^0.4.17;\n\nimport \"./ConvertLib.sol\";\n\n// This is just a simple example of a coin-like contract.\n// It is not standards compatible and cannot be expected to talk to other\n// coin/token contracts. If you want to create a standards-compliant\n// token, see: https://github.com/ConsenSys/Tokens. Cheers!\n\ncontract MetaCoin {\n\tmapping (address => uint) balances;\n\tuint public candy;\n\tstring public source;\n\n\tevent Transfer(address indexed _from, address indexed _to, uint256 _value);\n\n\tfunction MetaCoin() public {\n\t\tbalances[tx.origin] = 10000;\n\t\tcandy = 6;\n\t\tsource = \"source\";\n\t}\n\n\tfunction sendCoin(address receiver, uint amount) public returns(bool sufficient) {\n\t\tif (balances[msg.sender] < amount) {\n      return false;\n    }\n    \n\t\tbalances[msg.sender] -= amount;\n\t\tbalances[receiver] += amount;\n\t\tTransfer(msg.sender, receiver, amount);\n\t\treturn true;\n\t}\n\n\tfunction getBalanceInEth(address addr) public view returns(uint) {\n\t\treturn ConvertLib.convert(getBalance(addr),2);\n\t}\n\n\tfunction getBalance(address addr) public view returns(uint) {\n\t\treturn balances[addr];\n\t}\n\n\tfunction returns2(address addr) public view returns(uint, bool) {\n\t\treturn (balances[addr], true);\n\t}\n\n\tfunction other() public pure returns (string, bytes32, uint256) {\n\t\treturn (\"hey\", 0x11, 600);\n\t}\n\n  function bar (int baz) public pure returns (int) {\n    return baz*3;\n  }\n}\n",
  "sourcePath": "/Users/katopz/poc/ethereum-to-graphql/contracts/MetaCoin.sol",
  "compiler": {
    "name": "solc",
    "version": "0.4.18+commit.9cf6e910.Emscripten.clang"
  },
  "schemaVersion": "1.0.1",
  "updatedAt": "2017-11-01T12:18:15.697Z"
}