{
  "contractName": "MetaCoin",
  "abi": [
    {
      "constant": true,
      "inputs": [
        {
          "name": "addr",
          "type": "address"
        },
        {
          "name": "num",
          "type": "uint256"
        }
      ],
      "name": "returns2",
      "outputs": [
        {
          "name": "",
          "type": "uint256"
        },
        {
          "name": "",
          "type": "bool"
        }
      ],
      "payable": false,
      "stateMutability": "view",
      "type": "function"
    },
    {
      "constant": true,
      "inputs": [
        {
          "name": "bar",
          "type": "int256"
        }
      ],
      "name": "foo",
      "outputs": [
        {
          "name": "",
          "type": "int256"
        }
      ],
      "payable": false,
      "stateMutability": "pure",
      "type": "function"
    },
    {
      "constant": true,
      "inputs": [],
      "name": "source",
      "outputs": [
        {
          "name": "",
          "type": "string"
        }
      ],
      "payable": false,
      "stateMutability": "view",
      "type": "function"
    },
    {
      "constant": true,
      "inputs": [
        {
          "name": "addr",
          "type": "address"
        }
      ],
      "name": "getBalanceInEth",
      "outputs": [
        {
          "name": "",
          "type": "uint256"
        }
      ],
      "payable": false,
      "stateMutability": "view",
      "type": "function"
    },
    {
      "constant": true,
      "inputs": [],
      "name": "other",
      "outputs": [
        {
          "name": "",
          "type": "string"
        },
        {
          "name": "",
          "type": "bytes32"
        },
        {
          "name": "",
          "type": "uint256"
        }
      ],
      "payable": false,
      "stateMutability": "pure",
      "type": "function"
    },
    {
      "constant": false,
      "inputs": [
        {
          "name": "receiver",
          "type": "address"
        },
        {
          "name": "amount",
          "type": "uint256"
        }
      ],
      "name": "sendCoin",
      "outputs": [
        {
          "name": "sufficient",
          "type": "bool"
        }
      ],
      "payable": false,
      "stateMutability": "nonpayable",
      "type": "function"
    },
    {
      "constant": true,
      "inputs": [],
      "name": "candy",
      "outputs": [
        {
          "name": "",
          "type": "uint256"
        }
      ],
      "payable": false,
      "stateMutability": "view",
      "type": "function"
    },
    {
      "constant": true,
      "inputs": [
        {
          "name": "addr",
          "type": "address"
        }
      ],
      "name": "getBalance",
      "outputs": [
        {
          "name": "",
          "type": "uint256"
        }
      ],
      "payable": false,
      "stateMutability": "view",
      "type": "function"
    },
    {
      "inputs": [],
      "payable": false,
      "stateMutability": "nonpayable",
      "type": "constructor"
    },
    {
      "anonymous": false,
      "inputs": [
        {
          "indexed": true,
          "name": "_from",
          "type": "address"
        },
        {
          "indexed": true,
          "name": "_to",
          "type": "address"
        },
        {
          "indexed": false,
          "name": "_value",
          "type": "uint256"
        }
      ],
      "name": "Transfer",
      "type": "event"
    }
  ],
  "bytecode": "0x6060604052341561000f57600080fd5b600160a060020a03321660009081526020819052604090819020612710905560066001558051908101604052600681527f736f7572636500000000000000000000000000000000000000000000000000006020820152600290805161007892916020019061007e565b50610119565b828054600181600116156101000203166002900490600052602060002090601f016020900481019282601f106100bf57805160ff19168380011785556100ec565b828001600101855582156100ec579182015b828111156100ec5782518255916020019190600101906100d1565b506100f89291506100fc565b5090565b61011691905b808211156100f85760008155600101610102565b90565b6104c7806101286000396000f30060606040526004361061008d5763ffffffff7c01000000000000000000000000000000000000000000000000000000006000350416632dbfe88b81146100925780634c970b2f146100ce57806367e828bf146100f65780637bd703e814610180578063852958771461019f57806390b98a1114610239578063f616ce3c1461026f578063f8b2cb4f14610282575b600080fd5b341561009d57600080fd5b6100b4600160a060020a03600435166024356102a1565b604051918252151560208201526040908101905180910390f35b34156100d957600080fd5b6100e46004356102c0565b60405190815260200160405180910390f35b341561010157600080fd5b6101096102c6565b60405160208082528190810183818151815260200191508051906020019080838360005b8381101561014557808201518382015260200161012d565b50505050905090810190601f1680156101725780820380516001836020036101000a031916815260200191505b509250505060405180910390f35b341561018b57600080fd5b6100e4600160a060020a0360043516610364565b34156101aa57600080fd5b6101b261037f565b604051602081018390526040810182905260608082528190810185818151815260200191508051906020019080838360005b838110156101fc5780820151838201526020016101e4565b50505050905090810190601f1680156102295780820380516001836020036101000a031916815260200191505b5094505050505060405180910390f35b341561024457600080fd5b61025b600160a060020a03600435166024356103cd565b604051901515815260200160405180910390f35b341561027a57600080fd5b6100e4610464565b341561028d57600080fd5b6100e4600160a060020a036004351661046a565b50600160a060020a031660009081526020819052604090205490600190565b60030290565b60028054600181600116156101000203166002900480601f01602080910402602001604051908101604052809291908181526020018280546001816001161561010002031660029004801561035c5780601f106103315761010080835404028352916020019161035c565b820191906000526020600020905b81548152906001019060200180831161033f57829003601f168201915b505050505081565b60006103796103728361046a565b6002610485565b92915050565b610387610489565b600080601161025860408051908101604052600381527f686579000000000000000000000000000000000000000000000000000000000060208201529591945092509050565b600160a060020a033316600090815260208190526040812054829010156103f657506000610379565b600160a060020a033381166000818152602081905260408082208054879003905592861680825290839020805486019055917fddf252ad1be2c89b69c2b068fc378daa952ba7f163c4a11628f55a4df523b3ef9085905190815260200160405180910390a350600192915050565b60015481565b600160a060020a031660009081526020819052604090205490565b0290565b602060405190810160405260008152905600a165627a7a723058204310efffb9438190be35efde6ad0b450f2144c6cc341ebe53c28cd4acdfc9c210029",
  "source": "pragma solidity ^0.4.17;\n\nimport \"./ConvertLib.sol\";\n\n// This is just a simple example of a coin-like contract.\n// It is not standards compatible and cannot be expected to talk to other\n// coin/token contracts. If you want to create a standards-compliant\n// token, see: https://github.com/ConsenSys/Tokens. Cheers!\n\ncontract MetaCoin {\n\tmapping (address => uint) balances;\n\tuint public candy;\n\tstring public source;\n\n\tevent Transfer(address indexed _from, address indexed _to, uint256 _value);\n\n\tfunction MetaCoin() public {\n\t\tbalances[tx.origin] = 10000;\n\t\tcandy = 6;\n\t\tsource = \"source\";\n\t}\n\n\tfunction sendCoin(address receiver, uint amount) public returns(bool sufficient) {\n\t\tif (balances[msg.sender] < amount) {\n      return false;\n    }\n    \n\t\tbalances[msg.sender] -= amount;\n\t\tbalances[receiver] += amount;\n\t\tTransfer(msg.sender, receiver, amount);\n\t\treturn true;\n\t}\n\n\tfunction getBalanceInEth(address addr) public view returns(uint) {\n\t\treturn ConvertLib.convert(getBalance(addr),2);\n\t}\n\n\tfunction getBalance(address addr) public view returns(uint) {\n\t\treturn balances[addr];\n\t}\n\n\tfunction returns2(address addr, uint num) public view returns(uint, bool) {\n\t\treturn (balances[addr], true);\n\t}\n\n\tfunction other() public pure returns (string, bytes32, uint256) {\n\t\treturn (\"hey\", 0x11, 600);\n\t}\n\n  function foo (int bar) public pure returns (int) {\n    return bar*3;\n  }\n}\n",
  "sourcePath": "/Users/katopz/poc/ethereum-to-graphql/contracts/MetaCoin.sol",
  "compiler": {
    "name": "solc",
    "version": "0.4.18+commit.9cf6e910.Emscripten.clang"
  },
  "schemaVersion": "1.0.1",
  "updatedAt": "2017-11-02T05:56:33.744Z"
}